:1000000013C037C036C035C034C033C032C031C071
:1000100030C06CC02EC002C12BC12BC02AC029C069
:1000200028C027C026C00A0111241FBECFE5D4E096
:10003000DEBFCDBF10E0A0E6B0E0E6EAF3E002C02C
:1000400005900D92A036B107D9F710E0A0E6B0E018
:1000500001C01D92AB3AB107E1F710E0C8E2D0E071
:1000600003C02297FE0199D1C632D107D1F790D0B3
:1000700098C1C6CFA998AA98A89AAB9A80E098EDA3
:10008000FC013197F1F7A998AB98A89AAA9AFC01BC
:100090003197F1F7A898AB98A99AAA9AFC013197E1
:1000A000F1F7A898AA98A99AAB9A0197F1F7089541
:1000B000A898AA98A99AAB9A80E098EDFC0131978C
:1000C000F1F7A898AB98A99AAA9AFC013197F1F791
:1000D000A998AB98A89AAA9AFC013197F1F7A99828
:1000E000AA98A89AAB9A0197F1F708951F920F92D8
:1000F0000FB60F9211242F933F938F939F932091CC
:10010000A8003091A9008EEF82BF8091A7008F5F79
:100110008093A7008091A7008F3250F036FD06C073
:1001200035FF04C03093A6002093A50020E030E006
:100130009091AA0080B3892787FF1DC08091AA00F3
:1001400080958093AA008091A7008F3018F420E05A
:1001500030E007C02115310521F08091A7008032E1
:1001600050F036FD02C0220F331F8091AA0087FF96
:1001700021601092A7003093A9002093A8009F91BE
:100180008F913F912F910F900FBE0F901F90189558
:1001900088EE93E024E131E0F9013197F1F701971E
:1001A000D9F784E083BF81E089BF84B38F6084BBCB
:1001B0008F9883E087BB85B3807F85BB79DF78DF4D
:1001C00059DF7894F8942091A5003091A600109200
:1001D000A6001092A50078942115310599F3C90164
:1001E00080959095880F892F881F990B9195807421
:1001F00090702F733070822B932B8031910511F406
:1002000039DF03C0419709F453DFA898A998AA9849
:10021000AB98D8CF81E190E050D008951F920F9213
:100220000FB60F9211242F938F939F93EF93FF9309
:100230009BB12CB1E091A200EF5FEF718091A30020
:10024000E81711F482E008C0892F8871E093A200BA
:10025000F0E0E058FF4F20838093A400FF91EF91DE
:100260009F918F912F910F900FBE0F901F90189517
:100270001F920F920FB60F9211248F939F93EF93BB
:10028000FF939091A0008091A100981761F0E091F8
:10029000A100EF5FEF71E093A100F0E0E05AFF4FA3
:1002A00080818CB901C05598FF91EF919F918F91FA
:1002B0000F900FBE0F901F9018951092A0001092F3
:1002C000A1001092A2001092A30090BD89B988E904
:1002D0008AB986E880BD08959091A2008091A3001C
:1002E000981719F420E031E012C0E091A300EF5F0D
:1002F000EF71E093A300F0E0E058FF4F30812091D0
:10030000A400922F80E0AC01430F511D9A01C90156
:100310000895282F9091A0009F5F9F718091A10068
:100320009817E1F3E92FF0E0E05AFF4F2083909314
:10033000A000559A0895DC0111C09091A0009F5F24
:100340009F718091A1009817E1F31196E92FF0E0D9
:10035000E05AFF4F20839093A000559A2C912223BE
:1003600061F70895AC0110C02091A0002F5F2F719C
:100370008091A1002817E1F3E22FF0E0E05AFF4F4F
:1003800090832093A000559AFA014F5F5F4F94919C
:10039000992351F70895EE0FFF1F0590F491E02D7A
:0603A0000994F894FFCF60
:00000001FF
